{
  "_format": "hh-sol-artifact-1",
  "contractName": "FavoriteNumber",
  "sourceName": "contracts/FavoriteNumber.sol",
  "abi": [
    {
      "anonymous": false,
      "inputs": [
        {
          "indexed": true,
          "internalType": "address",
          "name": "user",
          "type": "address"
        },
        {
          "indexed": false,
          "internalType": "uint256",
          "name": "newFavoriteNumber",
          "type": "uint256"
        }
      ],
      "name": "FavoriteNumberUpdated",
      "type": "event"
    },
    {
      "inputs": [],
      "name": "getFavoriteNumber",
      "outputs": [
        {
          "internalType": "uint256",
          "name": "",
          "type": "uint256"
        }
      ],
      "stateMutability": "view",
      "type": "function"
    },
    {
      "inputs": [
        {
          "internalType": "uint256",
          "name": "_favoriteNumber",
          "type": "uint256"
        }
      ],
      "name": "setFavoriteNumber",
      "outputs": [],
      "stateMutability": "nonpayable",
      "type": "function"
    },
    {
      "inputs": [
        {
          "internalType": "uint256",
          "name": "_newFavoriteNumber",
          "type": "uint256"
        }
      ],
      "name": "updateFavoriteNumber",
      "outputs": [],
      "stateMutability": "nonpayable",
      "type": "function"
    }
  ],
  "bytecode": "0x608060405234801561001057600080fd5b506102d2806100206000396000f3fe608060405234801561001057600080fd5b50600436106100415760003560e01c806314493ec5146100465780638ec0423214610062578063a621d15e1461007e575b600080fd5b610060600480360381019061005b9190610245565b61009c565b005b61007c60048036038101906100779190610245565b610130565b005b6100866101c4565b6040516100939190610281565b60405180910390f35b806000803373ffffffffffffffffffffffffffffffffffffffff1673ffffffffffffffffffffffffffffffffffffffff168152602001908152602001600020819055503373ffffffffffffffffffffffffffffffffffffffff167f3151a0672bc29f96cf7228ae1cdd86f5e86c69cb052c17b82514d9846b7f2f7e826040516101259190610281565b60405180910390a250565b806000803373ffffffffffffffffffffffffffffffffffffffff1673ffffffffffffffffffffffffffffffffffffffff168152602001908152602001600020819055503373ffffffffffffffffffffffffffffffffffffffff167f3151a0672bc29f96cf7228ae1cdd86f5e86c69cb052c17b82514d9846b7f2f7e826040516101b99190610281565b60405180910390a250565b60008060003373ffffffffffffffffffffffffffffffffffffffff1673ffffffffffffffffffffffffffffffffffffffff16815260200190815260200160002054905090565b600080fd5b6000819050919050565b6102228161020f565b811461022d57600080fd5b50565b60008135905061023f81610219565b92915050565b60006020828403121561025b5761025a61020a565b5b600061026984828501610230565b91505092915050565b61027b8161020f565b82525050565b60006020820190506102966000830184610272565b9291505056fea264697066735822122069d0d0ab1c1fcc3569d061657c14c92bc808ac1df29408f8b66a2904eeab38de64736f6c63430008180033",
  "linkReferences": {},
  "deployedLinkReferences": {}
}